{
  "_format": "hh-sol-artifact-1",
  "contractName": "MessageStorage",
  "sourceName": "contracts/MessageStorage.sol",
  "abi": [
    {
      "inputs": [
        {
          "internalType": "string",
          "name": "message",
          "type": "string"
        },
        {
          "internalType": "string",
          "name": "password",
          "type": "string"
        }
      ],
      "stateMutability": "nonpayable",
      "type": "constructor"
    },
    {
      "anonymous": false,
      "inputs": [
        {
          "indexed": false,
          "internalType": "string",
          "name": "newMessage",
          "type": "string"
        }
      ],
      "name": "MessageUpdated",
      "type": "event"
    },
    {
      "inputs": [],
      "name": "getAdmin",
      "outputs": [
        {
          "internalType": "address",
          "name": "",
          "type": "address"
        }
      ],
      "stateMutability": "view",
      "type": "function"
    },
    {
      "inputs": [
        {
          "internalType": "string",
          "name": "password",
          "type": "string"
        }
      ],
      "name": "getMessage",
      "outputs": [
        {
          "internalType": "string",
          "name": "",
          "type": "string"
        }
      ],
      "stateMutability": "view",
      "type": "function"
    },
    {
      "inputs": [
        {
          "internalType": "string",
          "name": "message",
          "type": "string"
        }
      ],
      "name": "setMessage",
      "outputs": [],
      "stateMutability": "nonpayable",
      "type": "function"
    }
  ],
  "bytecode": "0x60c06040523480156200001157600080fd5b506040516200106138038062001061833981810160405281019062000037919062000248565b816000908162000048919062000518565b50806040516020016200005c919062000641565b60405160208183030381529060405280519060200120608081815250503373ffffffffffffffffffffffffffffffffffffffff1660a08173ffffffffffffffffffffffffffffffffffffffff168152505050506200065a565b6000604051905090565b600080fd5b600080fd5b600080fd5b600080fd5b6000601f19601f8301169050919050565b7f4e487b7100000000000000000000000000000000000000000000000000000000600052604160045260246000fd5b6200011e82620000d3565b810181811067ffffffffffffffff8211171562000140576200013f620000e4565b5b80604052505050565b600062000155620000b5565b905062000163828262000113565b919050565b600067ffffffffffffffff821115620001865762000185620000e4565b5b6200019182620000d3565b9050602081019050919050565b60005b83811015620001be578082015181840152602081019050620001a1565b60008484015250505050565b6000620001e1620001db8462000168565b62000149565b9050828152602081018484840111156200020057620001ff620000ce565b5b6200020d8482856200019e565b509392505050565b600082601f8301126200022d576200022c620000c9565b5b81516200023f848260208601620001ca565b91505092915050565b60008060408385031215620002625762000261620000bf565b5b600083015167ffffffffffffffff811115620002835762000282620000c4565b5b620002918582860162000215565b925050602083015167ffffffffffffffff811115620002b557620002b4620000c4565b5b620002c38582860162000215565b9150509250929050565b600081519050919050565b7f4e487b7100000000000000000000000000000000000000000000000000000000600052602260045260246000fd5b600060028204905060018216806200032057607f821691505b602082108103620003365762000335620002d8565b5b50919050565b60008190508160005260206000209050919050565b60006020601f8301049050919050565b600082821b905092915050565b600060088302620003a07fffffffffffffffffffffffffffffffffffffffffffffffffffffffffffffffff8262000361565b620003ac868362000361565b95508019841693508086168417925050509392505050565b6000819050919050565b6000819050919050565b6000620003f9620003f3620003ed84620003c4565b620003ce565b620003c4565b9050919050565b6000819050919050565b6200041583620003d8565b6200042d620004248262000400565b8484546200036e565b825550505050565b600090565b6200044462000435565b620004518184846200040a565b505050565b5b8181101562000479576200046d6000826200043a565b60018101905062000457565b5050565b601f821115620004c85762000492816200033c565b6200049d8462000351565b81016020851015620004ad578190505b620004c5620004bc8562000351565b83018262000456565b50505b505050565b600082821c905092915050565b6000620004ed60001984600802620004cd565b1980831691505092915050565b6000620005088383620004da565b9150826002028217905092915050565b6200052382620002cd565b67ffffffffffffffff8111156200053f576200053e620000e4565b5b6200054b825462000307565b620005588282856200047d565b600060209050601f8311600181146200059057600084156200057b578287015190505b620005878582620004fa565b865550620005f7565b601f198416620005a0866200033c565b60005b82811015620005ca57848901518255600182019150602085019450602081019050620005a3565b86831015620005ea5784890151620005e6601f891682620004da565b8355505b6001600288020188555050505b505050505050565b600081905092915050565b60006200061782620002cd565b620006238185620005ff565b9350620006358185602086016200019e565b80840191505092915050565b60006200064f82846200060a565b915081905092915050565b60805160a0516109db62000686600039600081816101ce01526102a80152600060b401526109db6000f3fe608060405234801561001057600080fd5b50600436106100415760003560e01c80630cc4e8d814610046578063368b8772146100765780636e9960c314610092575b600080fd5b610060600480360381019061005b9190610426565b6100b0565b60405161006d91906104ee565b60405180910390f35b610090600480360381019061008b9190610426565b6101cc565b005b61009a6102a4565b6040516100a79190610551565b60405180910390f35b60607f0000000000000000000000000000000000000000000000000000000000000000826040516020016100e491906105a8565b604051602081830303815290604052805190602001201461013a576040517f08c379a000000000000000000000000000000000000000000000000000000000815260040161013190610631565b60405180910390fd5b6000805461014790610680565b80601f016020809104026020016040519081016040528092919081815260200182805461017390610680565b80156101c05780601f10610195576101008083540402835291602001916101c0565b820191906000526020600020905b8154815290600101906020018083116101a357829003601f168201915b50505050509050919050565b7f000000000000000000000000000000000000000000000000000000000000000073ffffffffffffffffffffffffffffffffffffffff163373ffffffffffffffffffffffffffffffffffffffff161461025a576040517f08c379a0000000000000000000000000000000000000000000000000000000008152600401610251906106fd565b60405180910390fd5b806000908161026991906108d3565b507f8fae638bf5c6396194a6bb16601c4035a07fa48191638ff4102f0d96f14cfefb8160405161029991906104ee565b60405180910390a150565b60007f0000000000000000000000000000000000000000000000000000000000000000905090565b6000604051905090565b600080fd5b600080fd5b600080fd5b600080fd5b6000601f19601f8301169050919050565b7f4e487b7100000000000000000000000000000000000000000000000000000000600052604160045260246000fd5b610333826102ea565b810181811067ffffffffffffffff82111715610352576103516102fb565b5b80604052505050565b60006103656102cc565b9050610371828261032a565b919050565b600067ffffffffffffffff821115610391576103906102fb565b5b61039a826102ea565b9050602081019050919050565b82818337600083830152505050565b60006103c96103c484610376565b61035b565b9050828152602081018484840111156103e5576103e46102e5565b5b6103f08482856103a7565b509392505050565b600082601f83011261040d5761040c6102e0565b5b813561041d8482602086016103b6565b91505092915050565b60006020828403121561043c5761043b6102d6565b5b600082013567ffffffffffffffff81111561045a576104596102db565b5b610466848285016103f8565b91505092915050565b600081519050919050565b600082825260208201905092915050565b60005b838110156104a957808201518184015260208101905061048e565b60008484015250505050565b60006104c08261046f565b6104ca818561047a565b93506104da81856020860161048b565b6104e3816102ea565b840191505092915050565b6000602082019050818103600083015261050881846104b5565b905092915050565b600073ffffffffffffffffffffffffffffffffffffffff82169050919050565b600061053b82610510565b9050919050565b61054b81610530565b82525050565b60006020820190506105666000830184610542565b92915050565b600081905092915050565b60006105828261046f565b61058c818561056c565b935061059c81856020860161048b565b80840191505092915050565b60006105b48284610577565b915081905092915050565b7f4d65737361676553746f726167653a20696e636f72726563742070617373776f60008201527f7264000000000000000000000000000000000000000000000000000000000000602082015250565b600061061b60228361047a565b9150610626826105bf565b604082019050919050565b6000602082019050818103600083015261064a8161060e565b9050919050565b7f4e487b7100000000000000000000000000000000000000000000000000000000600052602260045260246000fd5b6000600282049050600182168061069857607f821691505b6020821081036106ab576106aa610651565b5b50919050565b7f4d65737361676553746f726167653a2073656e646572206e6f742061646d696e600082015250565b60006106e760208361047a565b91506106f2826106b1565b602082019050919050565b60006020820190508181036000830152610716816106da565b9050919050565b60008190508160005260206000209050919050565b60006020601f8301049050919050565b600082821b905092915050565b60006008830261077f7fffffffffffffffffffffffffffffffffffffffffffffffffffffffffffffffff82610742565b6107898683610742565b95508019841693508086168417925050509392505050565b6000819050919050565b6000819050919050565b60006107d06107cb6107c6846107a1565b6107ab565b6107a1565b9050919050565b6000819050919050565b6107ea836107b5565b6107fe6107f6826107d7565b84845461074f565b825550505050565b600090565b610813610806565b61081e8184846107e1565b505050565b5b818110156108425761083760008261080b565b600181019050610824565b5050565b601f821115610887576108588161071d565b61086184610732565b81016020851015610870578190505b61088461087c85610732565b830182610823565b50505b505050565b600082821c905092915050565b60006108aa6000198460080261088c565b1980831691505092915050565b60006108c38383610899565b9150826002028217905092915050565b6108dc8261046f565b67ffffffffffffffff8111156108f5576108f46102fb565b5b6108ff8254610680565b61090a828285610846565b600060209050601f83116001811461093d576000841561092b578287015190505b61093585826108b7565b86555061099d565b601f19841661094b8661071d565b60005b828110156109735784890151825560018201915060208501945060208101905061094e565b86831015610990578489015161098c601f891682610899565b8355505b6001600288020188555050505b50505050505056fea264697066735822122008ce21ca981b29abd603d2411d1e8cb9cb3362ff820350d9cae564fda6ab871664736f6c63430008180033",
  "linkReferences": {},
  "deployedLinkReferences": {}
}